{
  "_format": "hh-sol-artifact-1",
  "contractName": "WeirdAssFungis",
  "sourceName": "contracts/WeirdAssFungis.sol",
  "abi": [
    {
      "inputs": [],
      "stateMutability": "nonpayable",
      "type": "constructor"
    },
    {
      "anonymous": false,
      "inputs": [
        {
          "indexed": true,
          "internalType": "address",
          "name": "owner",
          "type": "address"
        },
        {
          "indexed": true,
          "internalType": "address",
          "name": "approved",
          "type": "address"
        },
        {
          "indexed": true,
          "internalType": "uint256",
          "name": "tokenId",
          "type": "uint256"
        }
      ],
      "name": "Approval",
      "type": "event"
    },
    {
      "anonymous": false,
      "inputs": [
        {
          "indexed": true,
          "internalType": "address",
          "name": "owner",
          "type": "address"
        },
        {
          "indexed": true,
          "internalType": "address",
          "name": "operator",
          "type": "address"
        },
        {
          "indexed": false,
          "internalType": "bool",
          "name": "approved",
          "type": "bool"
        }
      ],
      "name": "ApprovalForAll",
      "type": "event"
    },
    {
      "anonymous": false,
      "inputs": [
        {
          "indexed": true,
          "internalType": "address",
          "name": "previousOwner",
          "type": "address"
        },
        {
          "indexed": true,
          "internalType": "address",
          "name": "newOwner",
          "type": "address"
        }
      ],
      "name": "OwnershipTransferred",
      "type": "event"
    },
    {
      "anonymous": false,
      "inputs": [
        {
          "indexed": false,
          "internalType": "bool",
          "name": "isActive",
          "type": "bool"
        }
      ],
      "name": "StateUpdate",
      "type": "event"
    },
    {
      "anonymous": false,
      "inputs": [
        {
          "indexed": true,
          "internalType": "address",
          "name": "from",
          "type": "address"
        },
        {
          "indexed": true,
          "internalType": "address",
          "name": "to",
          "type": "address"
        },
        {
          "indexed": true,
          "internalType": "uint256",
          "name": "tokenId",
          "type": "uint256"
        }
      ],
      "name": "Transfer",
      "type": "event"
    },
    {
      "inputs": [],
      "name": "MAX_SUPPLY",
      "outputs": [
        {
          "internalType": "uint256",
          "name": "",
          "type": "uint256"
        }
      ],
      "stateMutability": "view",
      "type": "function"
    },
    {
      "inputs": [],
      "name": "PRICE",
      "outputs": [
        {
          "internalType": "uint256",
          "name": "",
          "type": "uint256"
        }
      ],
      "stateMutability": "view",
      "type": "function"
    },
    {
      "inputs": [
        {
          "internalType": "address",
          "name": "to",
          "type": "address"
        },
        {
          "internalType": "uint256",
          "name": "tokenId",
          "type": "uint256"
        }
      ],
      "name": "approve",
      "outputs": [],
      "stateMutability": "nonpayable",
      "type": "function"
    },
    {
      "inputs": [
        {
          "internalType": "address",
          "name": "owner",
          "type": "address"
        }
      ],
      "name": "balanceOf",
      "outputs": [
        {
          "internalType": "uint256",
          "name": "",
          "type": "uint256"
        }
      ],
      "stateMutability": "view",
      "type": "function"
    },
    {
      "inputs": [],
      "name": "baseURI",
      "outputs": [
        {
          "internalType": "string",
          "name": "",
          "type": "string"
        }
      ],
      "stateMutability": "view",
      "type": "function"
    },
    {
      "inputs": [
        {
          "internalType": "uint256",
          "name": "tokenId",
          "type": "uint256"
        }
      ],
      "name": "getApproved",
      "outputs": [
        {
          "internalType": "address",
          "name": "",
          "type": "address"
        }
      ],
      "stateMutability": "view",
      "type": "function"
    },
    {
      "inputs": [
        {
          "internalType": "uint256",
          "name": "tokenId",
          "type": "uint256"
        }
      ],
      "name": "getType",
      "outputs": [
        {
          "internalType": "enum WeirdAssFungis.FUNGI",
          "name": "",
          "type": "uint8"
        }
      ],
      "stateMutability": "view",
      "type": "function"
    },
    {
      "inputs": [
        {
          "internalType": "uint256",
          "name": "",
          "type": "uint256"
        }
      ],
      "name": "idToType",
      "outputs": [
        {
          "internalType": "enum WeirdAssFungis.FUNGI",
          "name": "",
          "type": "uint8"
        }
      ],
      "stateMutability": "view",
      "type": "function"
    },
    {
      "inputs": [],
      "name": "isActive",
      "outputs": [
        {
          "internalType": "bool",
          "name": "",
          "type": "bool"
        }
      ],
      "stateMutability": "view",
      "type": "function"
    },
    {
      "inputs": [
        {
          "internalType": "address",
          "name": "owner",
          "type": "address"
        },
        {
          "internalType": "address",
          "name": "operator",
          "type": "address"
        }
      ],
      "name": "isApprovedForAll",
      "outputs": [
        {
          "internalType": "bool",
          "name": "",
          "type": "bool"
        }
      ],
      "stateMutability": "view",
      "type": "function"
    },
    {
      "inputs": [
        {
          "internalType": "enum WeirdAssFungis.FUNGI",
          "name": "_type",
          "type": "uint8"
        }
      ],
      "name": "mint",
      "outputs": [],
      "stateMutability": "payable",
      "type": "function"
    },
    {
      "inputs": [],
      "name": "name",
      "outputs": [
        {
          "internalType": "string",
          "name": "",
          "type": "string"
        }
      ],
      "stateMutability": "view",
      "type": "function"
    },
    {
      "inputs": [],
      "name": "owner",
      "outputs": [
        {
          "internalType": "address",
          "name": "",
          "type": "address"
        }
      ],
      "stateMutability": "view",
      "type": "function"
    },
    {
      "inputs": [
        {
          "internalType": "uint256",
          "name": "tokenId",
          "type": "uint256"
        }
      ],
      "name": "ownerOf",
      "outputs": [
        {
          "internalType": "address",
          "name": "",
          "type": "address"
        }
      ],
      "stateMutability": "view",
      "type": "function"
    },
    {
      "inputs": [
        {
          "internalType": "contract IERC20",
          "name": "_token",
          "type": "address"
        }
      ],
      "name": "recoverToken",
      "outputs": [],
      "stateMutability": "nonpayable",
      "type": "function"
    },
    {
      "inputs": [],
      "name": "renounceOwnership",
      "outputs": [],
      "stateMutability": "nonpayable",
      "type": "function"
    },
    {
      "inputs": [
        {
          "internalType": "address",
          "name": "from",
          "type": "address"
        },
        {
          "internalType": "address",
          "name": "to",
          "type": "address"
        },
        {
          "internalType": "uint256",
          "name": "tokenId",
          "type": "uint256"
        }
      ],
      "name": "safeTransferFrom",
      "outputs": [],
      "stateMutability": "nonpayable",
      "type": "function"
    },
    {
      "inputs": [
        {
          "internalType": "address",
          "name": "from",
          "type": "address"
        },
        {
          "internalType": "address",
          "name": "to",
          "type": "address"
        },
        {
          "internalType": "uint256",
          "name": "tokenId",
          "type": "uint256"
        },
        {
          "internalType": "bytes",
          "name": "_data",
          "type": "bytes"
        }
      ],
      "name": "safeTransferFrom",
      "outputs": [],
      "stateMutability": "nonpayable",
      "type": "function"
    },
    {
      "inputs": [
        {
          "internalType": "address",
          "name": "operator",
          "type": "address"
        },
        {
          "internalType": "bool",
          "name": "approved",
          "type": "bool"
        }
      ],
      "name": "setApprovalForAll",
      "outputs": [],
      "stateMutability": "nonpayable",
      "type": "function"
    },
    {
      "inputs": [
        {
          "internalType": "string",
          "name": "_base",
          "type": "string"
        }
      ],
      "name": "setBaseURI",
      "outputs": [],
      "stateMutability": "nonpayable",
      "type": "function"
    },
    {
      "inputs": [
        {
          "internalType": "bool",
          "name": "active",
          "type": "bool"
        }
      ],
      "name": "setSaleState",
      "outputs": [],
      "stateMutability": "nonpayable",
      "type": "function"
    },
    {
      "inputs": [
        {
          "internalType": "string",
          "name": "_uri",
          "type": "string"
        }
      ],
      "name": "setUnrevealedURI",
      "outputs": [],
      "stateMutability": "nonpayable",
      "type": "function"
    },
    {
      "inputs": [
        {
          "internalType": "bytes4",
          "name": "interfaceId",
          "type": "bytes4"
        }
      ],
      "name": "supportsInterface",
      "outputs": [
        {
          "internalType": "bool",
          "name": "",
          "type": "bool"
        }
      ],
      "stateMutability": "view",
      "type": "function"
    },
    {
      "inputs": [],
      "name": "symbol",
      "outputs": [
        {
          "internalType": "string",
          "name": "",
          "type": "string"
        }
      ],
      "stateMutability": "view",
      "type": "function"
    },
    {
      "inputs": [
        {
          "internalType": "uint256",
          "name": "index",
          "type": "uint256"
        }
      ],
      "name": "tokenByIndex",
      "outputs": [
        {
          "internalType": "uint256",
          "name": "",
          "type": "uint256"
        }
      ],
      "stateMutability": "view",
      "type": "function"
    },
    {
      "inputs": [
        {
          "internalType": "address",
          "name": "owner",
          "type": "address"
        },
        {
          "internalType": "uint256",
          "name": "index",
          "type": "uint256"
        }
      ],
      "name": "tokenOfOwnerByIndex",
      "outputs": [
        {
          "internalType": "uint256",
          "name": "",
          "type": "uint256"
        }
      ],
      "stateMutability": "view",
      "type": "function"
    },
    {
      "inputs": [
        {
          "internalType": "uint256",
          "name": "tokenId",
          "type": "uint256"
        }
      ],
      "name": "tokenURI",
      "outputs": [
        {
          "internalType": "string",
          "name": "",
          "type": "string"
        }
      ],
      "stateMutability": "view",
      "type": "function"
    },
    {
      "inputs": [],
      "name": "totalSupply",
      "outputs": [
        {
          "internalType": "uint256",
          "name": "",
          "type": "uint256"
        }
      ],
      "stateMutability": "view",
      "type": "function"
    },
    {
      "inputs": [
        {
          "internalType": "address",
          "name": "from",
          "type": "address"
        },
        {
          "internalType": "address",
          "name": "to",
          "type": "address"
        },
        {
          "internalType": "uint256",
          "name": "tokenId",
          "type": "uint256"
        }
      ],
      "name": "transferFrom",
      "outputs": [],
      "stateMutability": "nonpayable",
      "type": "function"
    },
    {
      "inputs": [
        {
          "internalType": "address",
          "name": "newOwner",
          "type": "address"
        }
      ],
      "name": "transferOwnership",
      "outputs": [],
      "stateMutability": "nonpayable",
      "type": "function"
    },
    {
      "inputs": [],
      "name": "unrevealedURI",
      "outputs": [
        {
          "internalType": "string",
          "name": "",
          "type": "string"
        }
      ],
      "stateMutability": "view",
      "type": "function"
    },
    {
      "inputs": [],
      "name": "withdraw",
      "outputs": [],
      "stateMutability": "nonpayable",
      "type": "function"
    }
  ],
  "bytecode": "0x60e0604052603560808181529062002c7c60a03980516200002991600b916020909101906200011a565b503480156200003757600080fd5b50604080518082018252601081526f5765697264206173732046756e67697360801b60208083019182528351808501909452600384526257415360e81b9084015281519192916200008b916000916200011a565b508051620000a19060019060208401906200011a565b505050620000be620000b8620000c460201b60201c565b620000c8565b620001fd565b3390565b600a80546001600160a01b038381166001600160a01b0319831681179093556040519116919082907f8be0079c531659141344cd1fd0a4f28419497f9722a3daafe3b4186f6b6457e090600090a35050565b8280546200012890620001c0565b90600052602060002090601f0160209004810192826200014c576000855562000197565b82601f106200016757805160ff191683800117855562000197565b8280016001018555821562000197579182015b82811115620001975782518255916020019190600101906200017a565b50620001a5929150620001a9565b5090565b5b80821115620001a55760008155600101620001aa565b600181811c90821680620001d557607f821691505b60208210811415620001f757634e487b7160e01b600052602260045260246000fd5b50919050565b612a6f806200020d6000396000f3fe6080604052600436106101e35760003560e01c80636ecd230611610102578063a22cb46511610095578063e985e9c511610064578063e985e9c51461055a578063f2fde38b146105a3578063f4797d22146105c3578063fe2c7fee146105f357600080fd5b8063a22cb465146104da578063b88d4fde146104fa578063c4e370951461051a578063c87b56dd1461053a57600080fd5b80638d859f3e116100d15780638d859f3e1461046b5780638da5cb5b1461048757806395d89b41146104a55780639be65a60146104ba57600080fd5b80636ecd23061461040e5780637035bf181461042157806370a0823114610436578063715018a61461045657600080fd5b806332cb6b0c1161017a5780634f6ccce7116101495780634f6ccce71461039957806355f804b3146103b95780636352211e146103d95780636c0360eb146103f957600080fd5b806332cb6b0c146103125780633ccfd60b146103275780634036ab781461033c57806342842e0e1461037957600080fd5b806318160ddd116101b657806318160ddd1461029957806322f3e2d4146102b857806323b872dd146102d25780632f745c59146102f257600080fd5b806301ffc9a7146101e857806306fdde031461021d578063081812fc1461023f578063095ea7b314610277575b600080fd5b3480156101f457600080fd5b506102086102033660046125e9565b610613565b60405190151581526020015b60405180910390f35b34801561022957600080fd5b5061023261066f565b604051610214919061289c565b34801561024b57600080fd5b5061025f61025a366004612686565b610701565b6040516001600160a01b039091168152602001610214565b34801561028357600080fd5b50610297610292366004612586565b6107ac565b005b3480156102a557600080fd5b506008545b604051908152602001610214565b3480156102c457600080fd5b50600d546102089060ff1681565b3480156102de57600080fd5b506102976102ed36600461249c565b6108de565b3480156102fe57600080fd5b506102aa61030d366004612586565b610965565b34801561031e57600080fd5b506102aa606481565b34801561033357600080fd5b50610297610a0d565b34801561034857600080fd5b5061036c610357366004612686565b6000908152600f602052604090205460ff1690565b6040516102149190612874565b34801561038557600080fd5b5061029761039436600461249c565b610a9a565b3480156103a557600080fd5b506102aa6103b4366004612686565b610ab5565b3480156103c557600080fd5b506102976103d4366004612640565b610b67565b3480156103e557600080fd5b5061025f6103f4366004612686565b610bd4565b34801561040557600080fd5b50610232610c5f565b61029761041c366004612621565b610ced565b34801561042d57600080fd5b50610232610df2565b34801561044257600080fd5b506102aa610451366004612441565b610dff565b34801561046257600080fd5b50610297610e99565b34801561047757600080fd5b506102aa674563918244f4000081565b34801561049357600080fd5b50600a546001600160a01b031661025f565b3480156104b157600080fd5b50610232610eff565b3480156104c657600080fd5b506102976104d5366004612441565b610f0e565b3480156104e657600080fd5b506102976104f5366004612559565b611107565b34801561050657600080fd5b506102976105153660046124dc565b611112565b34801561052657600080fd5b506102976105353660046125b1565b6111a0565b34801561054657600080fd5b50610232610555366004612686565b61125f565b34801561056657600080fd5b50610208610575366004612464565b6001600160a01b03918216600090815260056020908152604080832093909416825291909152205460ff1690565b3480156105af57600080fd5b506102976105be366004612441565b6113c3565b3480156105cf57600080fd5b5061036c6105de366004612686565b600f6020526000908152604090205460ff1681565b3480156105ff57600080fd5b5061029761060e366004612640565b6114a2565b60007fffffffff0000000000000000000000000000000000000000000000000000000082167f780e9d6300000000000000000000000000000000000000000000000000000000148061066957506106698261150f565b92915050565b60606000805461067e9061291e565b80601f01602080910402602001604051908101604052809291908181526020018280546106aa9061291e565b80156106f75780601f106106cc576101008083540402835291602001916106f7565b820191906000526020600020905b8154815290600101906020018083116106da57829003601f168201915b5050505050905090565b6000818152600260205260408120546001600160a01b03166107905760405162461bcd60e51b815260206004820152602c60248201527f4552433732313a20617070726f76656420717565727920666f72206e6f6e657860448201527f697374656e7420746f6b656e000000000000000000000000000000000000000060648201526084015b60405180910390fd5b506000908152600460205260409020546001600160a01b031690565b60006107b782610bd4565b9050806001600160a01b0316836001600160a01b031614156108415760405162461bcd60e51b815260206004820152602160248201527f4552433732313a20617070726f76616c20746f2063757272656e74206f776e6560448201527f72000000000000000000000000000000000000000000000000000000000000006064820152608401610787565b336001600160a01b038216148061085d575061085d8133610575565b6108cf5760405162461bcd60e51b815260206004820152603860248201527f4552433732313a20617070726f76652063616c6c6572206973206e6f74206f7760448201527f6e6572206e6f7220617070726f76656420666f7220616c6c00000000000000006064820152608401610787565b6108d983836115f2565b505050565b6108e83382611678565b61095a5760405162461bcd60e51b815260206004820152603160248201527f4552433732313a207472616e736665722063616c6c6572206973206e6f74206f60448201527f776e6572206e6f7220617070726f7665640000000000000000000000000000006064820152608401610787565b6108d9838383611780565b600061097083610dff565b82106109e45760405162461bcd60e51b815260206004820152602b60248201527f455243373231456e756d657261626c653a206f776e657220696e646578206f7560448201527f74206f6620626f756e64730000000000000000000000000000000000000000006064820152608401610787565b506001600160a01b03919091166000908152600660209081526040808320938352929052205490565b600a546001600160a01b03163314610a675760405162461bcd60e51b815260206004820181905260248201527f4f776e61626c653a2063616c6c6572206973206e6f7420746865206f776e65726044820152606401610787565b6040514790339082156108fc029083906000818181858888f19350505050158015610a96573d6000803e3d6000fd5b5050565b6108d983838360405180602001604052806000815250611112565b6000610ac060085490565b8210610b345760405162461bcd60e51b815260206004820152602c60248201527f455243373231456e756d657261626c653a20676c6f62616c20696e646578206f60448201527f7574206f6620626f756e647300000000000000000000000000000000000000006064820152608401610787565b60088281548110610b5557634e487b7160e01b600052603260045260246000fd5b90600052602060002001549050919050565b600a546001600160a01b03163314610bc15760405162461bcd60e51b815260206004820181905260248201527f4f776e61626c653a2063616c6c6572206973206e6f7420746865206f776e65726044820152606401610787565b8051610a9690600c906020840190612314565b6000818152600260205260408120546001600160a01b0316806106695760405162461bcd60e51b815260206004820152602960248201527f4552433732313a206f776e657220717565727920666f72206e6f6e657869737460448201527f656e7420746f6b656e00000000000000000000000000000000000000000000006064820152608401610787565b600c8054610c6c9061291e565b80601f0160208091040260200160405190810160405280929190818152602001828054610c989061291e565b8015610ce55780601f10610cba57610100808354040283529160200191610ce5565b820191906000526020600020905b815481529060010190602001808311610cc857829003601f168201915b505050505081565b600d5460ff16610d3f5760405162461bcd60e51b815260206004820152601260248201527f53616c65206973206e6f742061637469766500000000000000000000000000006044820152606401610787565b674563918244f400003414610d965760405162461bcd60e51b815260206004820152601860248201527f496e636f72726563742076616c756520737570706c69656400000000000000006044820152606401610787565b323314610de55760405162461bcd60e51b815260206004820152601a60248201527f436f6e74726163742063616c6c73206e6f7420616c6c6f7765640000000000006044820152606401610787565b610def3382611970565b50565b600b8054610c6c9061291e565b60006001600160a01b038216610e7d5760405162461bcd60e51b815260206004820152602a60248201527f4552433732313a2062616c616e636520717565727920666f7220746865207a6560448201527f726f2061646472657373000000000000000000000000000000000000000000006064820152608401610787565b506001600160a01b031660009081526003602052604090205490565b600a546001600160a01b03163314610ef35760405162461bcd60e51b815260206004820181905260248201527f4f776e61626c653a2063616c6c6572206973206e6f7420746865206f776e65726044820152606401610787565b610efd6000611a43565b565b60606001805461067e9061291e565b600a546001600160a01b03163314610f685760405162461bcd60e51b815260206004820181905260248201527f4f776e61626c653a2063616c6c6572206973206e6f7420746865206f776e65726044820152606401610787565b6040517f70a082310000000000000000000000000000000000000000000000000000000081523060048201526000906001600160a01b038316906370a082319060240160206040518083038186803b158015610fc357600080fd5b505afa158015610fd7573d6000803e3d6000fd5b505050506040513d601f19601f82011682018060405250810190610ffb919061269e565b90506000826001600160a01b031663a9059cbb611020600a546001600160a01b031690565b6040517fffffffff0000000000000000000000000000000000000000000000000000000060e084901b1681526001600160a01b03909116600482015260248101859052604401602060405180830381600087803b15801561108057600080fd5b505af1158015611094573d6000803e3d6000fd5b505050506040513d601f19601f820116820180604052508101906110b891906125cd565b9050806108d95760405162461bcd60e51b815260206004820152601e60248201527f546f6b656e20636f756c64206e6f74206265207472616e7366657272656400006044820152606401610787565b610a96338383611aad565b61111c3383611678565b61118e5760405162461bcd60e51b815260206004820152603160248201527f4552433732313a207472616e736665722063616c6c6572206973206e6f74206f60448201527f776e6572206e6f7220617070726f7665640000000000000000000000000000006064820152608401610787565b61119a84848484611b9a565b50505050565b600a546001600160a01b031633146111fa5760405162461bcd60e51b815260206004820181905260248201527f4f776e61626c653a2063616c6c6572206973206e6f7420746865206f776e65726044820152606401610787565b600d80547fffffffffffffffffffffffffffffffffffffffffffffffffffffffffffffff00168215159081179091556040519081527f66de811963f882115fec2b9c23bff76236517492e199394703e721a8718181919060200160405180910390a150565b6000818152600260205260409020546060906001600160a01b03166112ec5760405162461bcd60e51b815260206004820152602f60248201527f4552433732314d657461646174613a2055524920717565727920666f72206e6f60448201527f6e6578697374656e7420746f6b656e00000000000000000000000000000000006064820152608401610787565b6000600c80546112fb9061291e565b90501161139257600b805461130f9061291e565b80601f016020809104026020016040519081016040528092919081815260200182805461133b9061291e565b80156113885780601f1061135d57610100808354040283529160200191611388565b820191906000526020600020905b81548152906001019060200180831161136b57829003601f168201915b5050505050610669565b600c61139d83611c23565b6040516020016113ae92919061271c565b60405160208183030381529060405292915050565b600a546001600160a01b0316331461141d5760405162461bcd60e51b815260206004820181905260248201527f4f776e61626c653a2063616c6c6572206973206e6f7420746865206f776e65726044820152606401610787565b6001600160a01b0381166114995760405162461bcd60e51b815260206004820152602660248201527f4f776e61626c653a206e6577206f776e657220697320746865207a65726f206160448201527f64647265737300000000000000000000000000000000000000000000000000006064820152608401610787565b610def81611a43565b600a546001600160a01b031633146114fc5760405162461bcd60e51b815260206004820181905260248201527f4f776e61626c653a2063616c6c6572206973206e6f7420746865206f776e65726044820152606401610787565b8051610a9690600b906020840190612314565b60007fffffffff0000000000000000000000000000000000000000000000000000000082167f80ac58cd0000000000000000000000000000000000000000000000000000000014806115a257507fffffffff0000000000000000000000000000000000000000000000000000000082167f5b5e139f00000000000000000000000000000000000000000000000000000000145b8061066957507f01ffc9a7000000000000000000000000000000000000000000000000000000007fffffffff00000000000000000000000000000000000000000000000000000000831614610669565b600081815260046020526040902080547fffffffffffffffffffffffff0000000000000000000000000000000000000000166001600160a01b038416908117909155819061163f82610bd4565b6001600160a01b03167f8c5be1e5ebec7d5bd14f71427d1e84f3dd0314c0f7b2291e5b200ac8c7c3b92560405160405180910390a45050565b6000818152600260205260408120546001600160a01b03166117025760405162461bcd60e51b815260206004820152602c60248201527f4552433732313a206f70657261746f7220717565727920666f72206e6f6e657860448201527f697374656e7420746f6b656e00000000000000000000000000000000000000006064820152608401610787565b600061170d83610bd4565b9050806001600160a01b0316846001600160a01b031614806117485750836001600160a01b031661173d84610701565b6001600160a01b0316145b8061177857506001600160a01b0380821660009081526005602090815260408083209388168352929052205460ff165b949350505050565b826001600160a01b031661179382610bd4565b6001600160a01b03161461180f5760405162461bcd60e51b815260206004820152602960248201527f4552433732313a207472616e73666572206f6620746f6b656e2074686174206960448201527f73206e6f74206f776e00000000000000000000000000000000000000000000006064820152608401610787565b6001600160a01b03821661188a5760405162461bcd60e51b8152602060048201526024808201527f4552433732313a207472616e7366657220746f20746865207a65726f2061646460448201527f72657373000000000000000000000000000000000000000000000000000000006064820152608401610787565b611895838383611d71565b6118a06000826115f2565b6001600160a01b03831660009081526003602052604081208054600192906118c99084906128db565b90915550506001600160a01b03821660009081526003602052604081208054600192906118f79084906128af565b909155505060008181526002602052604080822080547fffffffffffffffffffffffff0000000000000000000000000000000000000000166001600160a01b0386811691821790925591518493918716917fddf252ad1be2c89b69c2b068fc378daa952ba7f163c4a11628f55a4df523b3ef91a4505050565b606461197b60085490565b106119c85760405162461bcd60e51b815260206004820152600e60248201527f4e6f20737570706c79206c6566740000000000000000000000000000000000006044820152606401610787565b80600f60006119d660085490565b8152602081019190915260400160002080547fffffffffffffffffffffffffffffffffffffffffffffffffffffffffffffff00166001836003811115611a2c57634e487b7160e01b600052602160045260246000fd5b0217905550610a9682611a3e60085490565b611e29565b600a80546001600160a01b038381167fffffffffffffffffffffffff0000000000000000000000000000000000000000831681179093556040519116919082907f8be0079c531659141344cd1fd0a4f28419497f9722a3daafe3b4186f6b6457e090600090a35050565b816001600160a01b0316836001600160a01b03161415611b0f5760405162461bcd60e51b815260206004820152601960248201527f4552433732313a20617070726f766520746f2063616c6c6572000000000000006044820152606401610787565b6001600160a01b0383811660008181526005602090815260408083209487168084529482529182902080547fffffffffffffffffffffffffffffffffffffffffffffffffffffffffffffff001686151590811790915591519182527f17307eab39ab6107e8899845ad3d59bd9653f200f220920489ca2b5937696c31910160405180910390a3505050565b611ba5848484611780565b611bb184848484611f8f565b61119a5760405162461bcd60e51b815260206004820152603260248201527f4552433732313a207472616e7366657220746f206e6f6e20455243373231526560448201527f63656976657220696d706c656d656e74657200000000000000000000000000006064820152608401610787565b606081611c6357505060408051808201909152600181527f3000000000000000000000000000000000000000000000000000000000000000602082015290565b8160005b8115611c8d5780611c7781612959565b9150611c869050600a836128c7565b9150611c67565b60008167ffffffffffffffff811115611cb657634e487b7160e01b600052604160045260246000fd5b6040519080825280601f01601f191660200182016040528015611ce0576020820181803683370190505b5090505b841561177857611cf56001836128db565b9150611d02600a86612992565b611d0d9060306128af565b60f81b818381518110611d3057634e487b7160e01b600052603260045260246000fd5b60200101907effffffffffffffffffffffffffffffffffffffffffffffffffffffffffffff1916908160001a905350611d6a600a866128c7565b9450611ce4565b6001600160a01b038316611dcc57611dc781600880546000838152600960205260408120829055600182018355919091527ff3f7a9fe364faab93b216da50a3214154f22a0a2b415b23a84c8169e8b636ee30155565b611def565b816001600160a01b0316836001600160a01b031614611def57611def838261215a565b6001600160a01b038216611e06576108d9816121f7565b826001600160a01b0316826001600160a01b0316146108d9576108d982826122d0565b6001600160a01b038216611e7f5760405162461bcd60e51b815260206004820181905260248201527f4552433732313a206d696e7420746f20746865207a65726f20616464726573736044820152606401610787565b6000818152600260205260409020546001600160a01b031615611ee45760405162461bcd60e51b815260206004820152601c60248201527f4552433732313a20746f6b656e20616c7265616479206d696e746564000000006044820152606401610787565b611ef060008383611d71565b6001600160a01b0382166000908152600360205260408120805460019290611f199084906128af565b909155505060008181526002602052604080822080547fffffffffffffffffffffffff0000000000000000000000000000000000000000166001600160a01b03861690811790915590518392907fddf252ad1be2c89b69c2b068fc378daa952ba7f163c4a11628f55a4df523b3ef908290a45050565b60006001600160a01b0384163b1561214f576040517f150b7a020000000000000000000000000000000000000000000000000000000081526001600160a01b0385169063150b7a0290611fec903390899088908890600401612838565b602060405180830381600087803b15801561200657600080fd5b505af1925050508015612054575060408051601f3d9081017fffffffffffffffffffffffffffffffffffffffffffffffffffffffffffffffe016820190925261205191810190612605565b60015b612104573d808015612082576040519150601f19603f3d011682016040523d82523d6000602084013e612087565b606091505b5080516120fc5760405162461bcd60e51b815260206004820152603260248201527f4552433732313a207472616e7366657220746f206e6f6e20455243373231526560448201527f63656976657220696d706c656d656e74657200000000000000000000000000006064820152608401610787565b805181602001fd5b7fffffffff00000000000000000000000000000000000000000000000000000000167f150b7a0200000000000000000000000000000000000000000000000000000000149050611778565b506001949350505050565b6000600161216784610dff565b61217191906128db565b6000838152600760205260409020549091508082146121c4576001600160a01b03841660009081526006602090815260408083208584528252808320548484528184208190558352600790915290208190555b5060009182526007602090815260408084208490556001600160a01b039094168352600681528383209183525290812055565b600854600090612209906001906128db565b6000838152600960205260408120546008805493945090928490811061223f57634e487b7160e01b600052603260045260246000fd5b90600052602060002001549050806008838154811061226e57634e487b7160e01b600052603260045260246000fd5b60009182526020808320909101929092558281526009909152604080822084905585825281205560088054806122b457634e487b7160e01b600052603160045260246000fd5b6001900381819060005260206000200160009055905550505050565b60006122db83610dff565b6001600160a01b039093166000908152600660209081526040808320868452825280832085905593825260079052919091209190915550565b8280546123209061291e565b90600052602060002090601f0160209004810192826123425760008555612388565b82601f1061235b57805160ff1916838001178555612388565b82800160010185558215612388579182015b8281111561238857825182559160200191906001019061236d565b50612394929150612398565b5090565b5b808211156123945760008155600101612399565b600067ffffffffffffffff808411156123c8576123c86129d2565b604051601f85017fffffffffffffffffffffffffffffffffffffffffffffffffffffffffffffffe0908116603f0116810190828211818310171561240e5761240e6129d2565b8160405280935085815286868601111561242757600080fd5b858560208301376000602087830101525050509392505050565b600060208284031215612452578081fd5b813561245d816129e8565b9392505050565b60008060408385031215612476578081fd5b8235612481816129e8565b91506020830135612491816129e8565b809150509250929050565b6000806000606084860312156124b0578081fd5b83356124bb816129e8565b925060208401356124cb816129e8565b929592945050506040919091013590565b600080600080608085870312156124f1578081fd5b84356124fc816129e8565b9350602085013561250c816129e8565b925060408501359150606085013567ffffffffffffffff81111561252e578182fd5b8501601f8101871361253e578182fd5b61254d878235602084016123ad565b91505092959194509250565b6000806040838503121561256b578182fd5b8235612576816129e8565b91506020830135612491816129fd565b60008060408385031215612598578182fd5b82356125a3816129e8565b946020939093013593505050565b6000602082840312156125c2578081fd5b813561245d816129fd565b6000602082840312156125de578081fd5b815161245d816129fd565b6000602082840312156125fa578081fd5b813561245d81612a0b565b600060208284031215612616578081fd5b815161245d81612a0b565b600060208284031215612632578081fd5b81356004811061245d578182fd5b600060208284031215612651578081fd5b813567ffffffffffffffff811115612667578182fd5b8201601f81018413612677578182fd5b611778848235602084016123ad565b600060208284031215612697578081fd5b5035919050565b6000602082840312156126af578081fd5b5051919050565b600081518084526126ce8160208601602086016128f2565b601f017fffffffffffffffffffffffffffffffffffffffffffffffffffffffffffffffe0169290920160200192915050565b600081516127128185602086016128f2565b9290920192915050565b600080845482600182811c91508083168061273857607f831692505b602080841082141561275857634e487b7160e01b87526022600452602487fd5b81801561276c576001811461279b576127c7565b7fffffffffffffffffffffffffffffffffffffffffffffffffffffffffffffff008616895284890196506127c7565b60008b815260209020885b868110156127bf5781548b8201529085019083016127a6565b505084890196505b50505050505061282f612806612800837f2f00000000000000000000000000000000000000000000000000000000000000815260010190565b86612700565b7f2e6a736f6e000000000000000000000000000000000000000000000000000000815260050190565b95945050505050565b60006001600160a01b0380871683528086166020840152508360408301526080606083015261286a60808301846126b6565b9695505050505050565b602081016004831061289657634e487b7160e01b600052602160045260246000fd5b91905290565b60208152600061245d60208301846126b6565b600082198211156128c2576128c26129a6565b500190565b6000826128d6576128d66129bc565b500490565b6000828210156128ed576128ed6129a6565b500390565b60005b8381101561290d5781810151838201526020016128f5565b8381111561119a5750506000910152565b600181811c9082168061293257607f821691505b6020821081141561295357634e487b7160e01b600052602260045260246000fd5b50919050565b60007fffffffffffffffffffffffffffffffffffffffffffffffffffffffffffffffff82141561298b5761298b6129a6565b5060010190565b6000826129a1576129a16129bc565b500690565b634e487b7160e01b600052601160045260246000fd5b634e487b7160e01b600052601260045260246000fd5b634e487b7160e01b600052604160045260246000fd5b6001600160a01b0381168114610def57600080fd5b8015158114610def57600080fd5b7fffffffff0000000000000000000000000000000000000000000000000000000081168114610def57600080fdfea2646970667358221220ca3850266dc05061e70567298e48f89381132bdff8d4c1b4b45596158546144e64736f6c63430008040033697066733a2f2f516d6362446d396178413954764e3354344c615a72786e7572474b6e6337377942376d56423648456339544e4843",
  "linkReferences": {},
  "deployedLinkReferences": {}
}