{
  "_format": "hh-sol-artifact-1",
  "contractName": "ChadFrogs",
  "sourceName": "contracts/ChadFrogs.sol",
  "abi": [
    {
      "inputs": [
        {
          "internalType": "string",
          "name": "_baseURIString",
          "type": "string"
        }
      ],
      "stateMutability": "nonpayable",
      "type": "constructor"
    },
    {
      "anonymous": false,
      "inputs": [
        {
          "indexed": true,
          "internalType": "address",
          "name": "owner",
          "type": "address"
        },
        {
          "indexed": true,
          "internalType": "address",
          "name": "approved",
          "type": "address"
        },
        {
          "indexed": true,
          "internalType": "uint256",
          "name": "tokenId",
          "type": "uint256"
        }
      ],
      "name": "Approval",
      "type": "event"
    },
    {
      "anonymous": false,
      "inputs": [
        {
          "indexed": true,
          "internalType": "address",
          "name": "owner",
          "type": "address"
        },
        {
          "indexed": true,
          "internalType": "address",
          "name": "operator",
          "type": "address"
        },
        {
          "indexed": false,
          "internalType": "bool",
          "name": "approved",
          "type": "bool"
        }
      ],
      "name": "ApprovalForAll",
      "type": "event"
    },
    {
      "anonymous": false,
      "inputs": [
        {
          "indexed": true,
          "internalType": "address",
          "name": "previousOwner",
          "type": "address"
        },
        {
          "indexed": true,
          "internalType": "address",
          "name": "newOwner",
          "type": "address"
        }
      ],
      "name": "OwnershipTransferred",
      "type": "event"
    },
    {
      "anonymous": false,
      "inputs": [
        {
          "indexed": false,
          "internalType": "bool",
          "name": "isActive",
          "type": "bool"
        }
      ],
      "name": "StateUpdate",
      "type": "event"
    },
    {
      "anonymous": false,
      "inputs": [
        {
          "indexed": true,
          "internalType": "address",
          "name": "from",
          "type": "address"
        },
        {
          "indexed": true,
          "internalType": "address",
          "name": "to",
          "type": "address"
        },
        {
          "indexed": true,
          "internalType": "uint256",
          "name": "tokenId",
          "type": "uint256"
        }
      ],
      "name": "Transfer",
      "type": "event"
    },
    {
      "inputs": [],
      "name": "MAX_SUPPLY",
      "outputs": [
        {
          "internalType": "uint256",
          "name": "",
          "type": "uint256"
        }
      ],
      "stateMutability": "view",
      "type": "function"
    },
    {
      "inputs": [],
      "name": "PRICE",
      "outputs": [
        {
          "internalType": "uint256",
          "name": "",
          "type": "uint256"
        }
      ],
      "stateMutability": "view",
      "type": "function"
    },
    {
      "inputs": [],
      "name": "PURCHASE_LIMIT",
      "outputs": [
        {
          "internalType": "uint256",
          "name": "",
          "type": "uint256"
        }
      ],
      "stateMutability": "view",
      "type": "function"
    },
    {
      "inputs": [
        {
          "internalType": "address",
          "name": "to",
          "type": "address"
        },
        {
          "internalType": "uint256",
          "name": "tokenId",
          "type": "uint256"
        }
      ],
      "name": "approve",
      "outputs": [],
      "stateMutability": "nonpayable",
      "type": "function"
    },
    {
      "inputs": [
        {
          "internalType": "address",
          "name": "owner",
          "type": "address"
        }
      ],
      "name": "balanceOf",
      "outputs": [
        {
          "internalType": "uint256",
          "name": "",
          "type": "uint256"
        }
      ],
      "stateMutability": "view",
      "type": "function"
    },
    {
      "inputs": [],
      "name": "baseURI",
      "outputs": [
        {
          "internalType": "string",
          "name": "",
          "type": "string"
        }
      ],
      "stateMutability": "view",
      "type": "function"
    },
    {
      "inputs": [
        {
          "internalType": "uint256",
          "name": "tokenId",
          "type": "uint256"
        }
      ],
      "name": "getApproved",
      "outputs": [
        {
          "internalType": "address",
          "name": "",
          "type": "address"
        }
      ],
      "stateMutability": "view",
      "type": "function"
    },
    {
      "inputs": [
        {
          "internalType": "address",
          "name": "_to",
          "type": "address"
        },
        {
          "internalType": "uint256",
          "name": "_amount",
          "type": "uint256"
        }
      ],
      "name": "giveAway",
      "outputs": [],
      "stateMutability": "nonpayable",
      "type": "function"
    },
    {
      "inputs": [],
      "name": "isActive",
      "outputs": [
        {
          "internalType": "bool",
          "name": "",
          "type": "bool"
        }
      ],
      "stateMutability": "view",
      "type": "function"
    },
    {
      "inputs": [
        {
          "internalType": "address",
          "name": "owner",
          "type": "address"
        },
        {
          "internalType": "address",
          "name": "operator",
          "type": "address"
        }
      ],
      "name": "isApprovedForAll",
      "outputs": [
        {
          "internalType": "bool",
          "name": "",
          "type": "bool"
        }
      ],
      "stateMutability": "view",
      "type": "function"
    },
    {
      "inputs": [
        {
          "internalType": "uint256",
          "name": "_amount",
          "type": "uint256"
        }
      ],
      "name": "mintChad",
      "outputs": [],
      "stateMutability": "payable",
      "type": "function"
    },
    {
      "inputs": [],
      "name": "name",
      "outputs": [
        {
          "internalType": "string",
          "name": "",
          "type": "string"
        }
      ],
      "stateMutability": "view",
      "type": "function"
    },
    {
      "inputs": [],
      "name": "owner",
      "outputs": [
        {
          "internalType": "address",
          "name": "",
          "type": "address"
        }
      ],
      "stateMutability": "view",
      "type": "function"
    },
    {
      "inputs": [
        {
          "internalType": "uint256",
          "name": "tokenId",
          "type": "uint256"
        }
      ],
      "name": "ownerOf",
      "outputs": [
        {
          "internalType": "address",
          "name": "",
          "type": "address"
        }
      ],
      "stateMutability": "view",
      "type": "function"
    },
    {
      "inputs": [],
      "name": "renounceOwnership",
      "outputs": [],
      "stateMutability": "nonpayable",
      "type": "function"
    },
    {
      "inputs": [],
      "name": "reserveSupply",
      "outputs": [
        {
          "internalType": "uint256",
          "name": "",
          "type": "uint256"
        }
      ],
      "stateMutability": "view",
      "type": "function"
    },
    {
      "inputs": [
        {
          "internalType": "address",
          "name": "from",
          "type": "address"
        },
        {
          "internalType": "address",
          "name": "to",
          "type": "address"
        },
        {
          "internalType": "uint256",
          "name": "tokenId",
          "type": "uint256"
        }
      ],
      "name": "safeTransferFrom",
      "outputs": [],
      "stateMutability": "nonpayable",
      "type": "function"
    },
    {
      "inputs": [
        {
          "internalType": "address",
          "name": "from",
          "type": "address"
        },
        {
          "internalType": "address",
          "name": "to",
          "type": "address"
        },
        {
          "internalType": "uint256",
          "name": "tokenId",
          "type": "uint256"
        },
        {
          "internalType": "bytes",
          "name": "_data",
          "type": "bytes"
        }
      ],
      "name": "safeTransferFrom",
      "outputs": [],
      "stateMutability": "nonpayable",
      "type": "function"
    },
    {
      "inputs": [
        {
          "internalType": "address",
          "name": "operator",
          "type": "address"
        },
        {
          "internalType": "bool",
          "name": "approved",
          "type": "bool"
        }
      ],
      "name": "setApprovalForAll",
      "outputs": [],
      "stateMutability": "nonpayable",
      "type": "function"
    },
    {
      "inputs": [
        {
          "internalType": "string",
          "name": "_baseURIString",
          "type": "string"
        }
      ],
      "name": "setBaseURI",
      "outputs": [],
      "stateMutability": "nonpayable",
      "type": "function"
    },
    {
      "inputs": [
        {
          "internalType": "bool",
          "name": "active",
          "type": "bool"
        }
      ],
      "name": "setSaleState",
      "outputs": [],
      "stateMutability": "nonpayable",
      "type": "function"
    },
    {
      "inputs": [
        {
          "internalType": "bytes4",
          "name": "interfaceId",
          "type": "bytes4"
        }
      ],
      "name": "supportsInterface",
      "outputs": [
        {
          "internalType": "bool",
          "name": "",
          "type": "bool"
        }
      ],
      "stateMutability": "view",
      "type": "function"
    },
    {
      "inputs": [],
      "name": "symbol",
      "outputs": [
        {
          "internalType": "string",
          "name": "",
          "type": "string"
        }
      ],
      "stateMutability": "view",
      "type": "function"
    },
    {
      "inputs": [
        {
          "internalType": "uint256",
          "name": "index",
          "type": "uint256"
        }
      ],
      "name": "tokenByIndex",
      "outputs": [
        {
          "internalType": "uint256",
          "name": "",
          "type": "uint256"
        }
      ],
      "stateMutability": "view",
      "type": "function"
    },
    {
      "inputs": [
        {
          "internalType": "address",
          "name": "owner",
          "type": "address"
        },
        {
          "internalType": "uint256",
          "name": "index",
          "type": "uint256"
        }
      ],
      "name": "tokenOfOwnerByIndex",
      "outputs": [
        {
          "internalType": "uint256",
          "name": "",
          "type": "uint256"
        }
      ],
      "stateMutability": "view",
      "type": "function"
    },
    {
      "inputs": [
        {
          "internalType": "uint256",
          "name": "tokenId",
          "type": "uint256"
        }
      ],
      "name": "tokenURI",
      "outputs": [
        {
          "internalType": "string",
          "name": "",
          "type": "string"
        }
      ],
      "stateMutability": "view",
      "type": "function"
    },
    {
      "inputs": [],
      "name": "totalSupply",
      "outputs": [
        {
          "internalType": "uint256",
          "name": "",
          "type": "uint256"
        }
      ],
      "stateMutability": "view",
      "type": "function"
    },
    {
      "inputs": [
        {
          "internalType": "address",
          "name": "from",
          "type": "address"
        },
        {
          "internalType": "address",
          "name": "to",
          "type": "address"
        },
        {
          "internalType": "uint256",
          "name": "tokenId",
          "type": "uint256"
        }
      ],
      "name": "transferFrom",
      "outputs": [],
      "stateMutability": "nonpayable",
      "type": "function"
    },
    {
      "inputs": [
        {
          "internalType": "address",
          "name": "newOwner",
          "type": "address"
        }
      ],
      "name": "transferOwnership",
      "outputs": [],
      "stateMutability": "nonpayable",
      "type": "function"
    },
    {
      "inputs": [],
      "name": "withdraw",
      "outputs": [],
      "stateMutability": "nonpayable",
      "type": "function"
    }
  ],
  "bytecode": "0x60806040526064600c55600d805460ff191690553480156200002057600080fd5b506040516200249c3803806200249c8339810160408190526200004391620001dc565b60408051808201825260098152684368616446726f677360b81b60208083019182528351808501909452600484526310d2105160e21b908401528151919291620000909160009162000136565b508051620000a690600190602084019062000136565b505050620000c3620000bd620000e060201b60201c565b620000e4565b8051620000d890600b90602084019062000136565b505062000305565b3390565b600a80546001600160a01b038381166001600160a01b0319831681179093556040519116919082907f8be0079c531659141344cd1fd0a4f28419497f9722a3daafe3b4186f6b6457e090600090a35050565b8280546200014490620002b2565b90600052602060002090601f016020900481019282620001685760008555620001b3565b82601f106200018357805160ff1916838001178555620001b3565b82800160010185558215620001b3579182015b82811115620001b357825182559160200191906001019062000196565b50620001c1929150620001c5565b5090565b5b80821115620001c15760008155600101620001c6565b60006020808385031215620001ef578182fd5b82516001600160401b038082111562000206578384fd5b818501915085601f8301126200021a578384fd5b8151818111156200022f576200022f620002ef565b604051601f8201601f19908116603f011681019083821181831017156200025a576200025a620002ef565b81604052828152888684870101111562000272578687fd5b8693505b8284101562000295578484018601518185018701529285019262000276565b82841115620002a657868684830101525b98975050505050505050565b600181811c90821680620002c757607f821691505b60208210811415620002e957634e487b7160e01b600052602260045260246000fd5b50919050565b634e487b7160e01b600052604160045260246000fd5b61218780620003156000396000f3fe60806040526004361061018d5760003560e01c80636c0360eb116100d7578063b88d4fde11610085578063b88d4fde14610430578063c4e3709514610450578063c87b56dd14610470578063ca80014414610490578063d75e6110146104b0578063e985e9c5146104c5578063f2fde38b146104e5578063fe234aac1461050557600080fd5b80636c0360eb1461038157806370a0823114610396578063715018a6146103b65780638d859f3e146103cb5780638da5cb5b146103e657806395d89b41146103fb578063a22cb4651461041057600080fd5b806323b872dd1161013f57806323b872dd146102965780632f745c59146102b657806332cb6b0c146102d65780633ccfd60b146102ec57806342842e0e146103015780634f6ccce71461032157806355f804b3146103415780636352211e1461036157600080fd5b806301ffc9a71461019257806303d41eb6146101c757806306fdde03146101eb578063081812fc1461020d578063095ea7b31461024557806318160ddd1461026757806322f3e2d41461027c575b600080fd5b34801561019e57600080fd5b506101b26101ad366004611de8565b610518565b60405190151581526020015b60405180910390f35b3480156101d357600080fd5b506101dd600c5481565b6040519081526020016101be565b3480156101f757600080fd5b50610200610543565b6040516101be9190611f16565b34801561021957600080fd5b5061022d610228366004611e66565b6105d5565b6040516001600160a01b0390911681526020016101be565b34801561025157600080fd5b50610265610260366004611da5565b610662565b005b34801561027357600080fd5b506008546101dd565b34801561028857600080fd5b50600d546101b29060ff1681565b3480156102a257600080fd5b506102656102b1366004611cc8565b610773565b3480156102c257600080fd5b506101dd6102d1366004611da5565b6107a4565b3480156102e257600080fd5b506101dd6101f481565b3480156102f857600080fd5b5061026561083a565b34801561030d57600080fd5b5061026561031c366004611cc8565b61089c565b34801561032d57600080fd5b506101dd61033c366004611e66565b6108b7565b34801561034d57600080fd5b5061026561035c366004611e20565b610958565b34801561036d57600080fd5b5061022d61037c366004611e66565b61099a565b34801561038d57600080fd5b50610200610a11565b3480156103a257600080fd5b506101dd6103b1366004611c7c565b610a9f565b3480156103c257600080fd5b50610265610b26565b3480156103d757600080fd5b506101dd666a94d74f43000081565b3480156103f257600080fd5b5061022d610b61565b34801561040757600080fd5b50610200610b70565b34801561041c57600080fd5b5061026561042b366004611d7c565b610b7f565b34801561043c57600080fd5b5061026561044b366004611d03565b610c40565b34801561045c57600080fd5b5061026561046b366004611dce565b610c78565b34801561047c57600080fd5b5061020061048b366004611e66565b610cee565b34801561049c57600080fd5b506102656104ab366004611da5565b610db9565b3480156104bc57600080fd5b506101dd600a81565b3480156104d157600080fd5b506101b26104e0366004611c96565b610e8e565b3480156104f157600080fd5b50610265610500366004611c7c565b610ebc565b610265610513366004611e66565b610f5c565b60006001600160e01b0319821663780e9d6360e01b148061053d575061053d82611138565b92915050565b6060600080546105529061208f565b80601f016020809104026020016040519081016040528092919081815260200182805461057e9061208f565b80156105cb5780601f106105a0576101008083540402835291602001916105cb565b820191906000526020600020905b8154815290600101906020018083116105ae57829003601f168201915b5050505050905090565b60006105e082611188565b6106465760405162461bcd60e51b815260206004820152602c60248201527f4552433732313a20617070726f76656420717565727920666f72206e6f6e657860448201526b34b9ba32b73a103a37b5b2b760a11b60648201526084015b60405180910390fd5b506000908152600460205260409020546001600160a01b031690565b600061066d8261099a565b9050806001600160a01b0316836001600160a01b031614156106db5760405162461bcd60e51b815260206004820152602160248201527f4552433732313a20617070726f76616c20746f2063757272656e74206f776e656044820152603960f91b606482015260840161063d565b336001600160a01b03821614806106f757506106f78133610e8e565b6107645760405162461bcd60e51b815260206004820152603860248201527f4552433732313a20617070726f76652063616c6c6572206973206e6f74206f776044820152771b995c881b9bdc88185c1c1c9bdd995908199bdc88185b1b60421b606482015260840161063d565b61076e83836111a5565b505050565b61077d3382611213565b6107995760405162461bcd60e51b815260040161063d90611fb0565b61076e8383836112dd565b60006107af83610a9f565b82106108115760405162461bcd60e51b815260206004820152602b60248201527f455243373231456e756d657261626c653a206f776e657220696e646578206f7560448201526a74206f6620626f756e647360a81b606482015260840161063d565b506001600160a01b03919091166000908152600660209081526040808320938352929052205490565b33610843610b61565b6001600160a01b0316146108695760405162461bcd60e51b815260040161063d90611f7b565b6040514790339082156108fc029083906000818181858888f19350505050158015610898573d6000803e3d6000fd5b5050565b61076e83838360405180602001604052806000815250610c40565b60006108c260085490565b82106109255760405162461bcd60e51b815260206004820152602c60248201527f455243373231456e756d657261626c653a20676c6f62616c20696e646578206f60448201526b7574206f6620626f756e647360a01b606482015260840161063d565b6008828154811061094657634e487b7160e01b600052603260045260246000fd5b90600052602060002001549050919050565b33610961610b61565b6001600160a01b0316146109875760405162461bcd60e51b815260040161063d90611f7b565b805161089890600b906020840190611b41565b6000818152600260205260408120546001600160a01b03168061053d5760405162461bcd60e51b815260206004820152602960248201527f4552433732313a206f776e657220717565727920666f72206e6f6e657869737460448201526832b73a103a37b5b2b760b91b606482015260840161063d565b600b8054610a1e9061208f565b80601f0160208091040260200160405190810160405280929190818152602001828054610a4a9061208f565b8015610a975780601f10610a6c57610100808354040283529160200191610a97565b820191906000526020600020905b815481529060010190602001808311610a7a57829003601f168201915b505050505081565b60006001600160a01b038216610b0a5760405162461bcd60e51b815260206004820152602a60248201527f4552433732313a2062616c616e636520717565727920666f7220746865207a65604482015269726f206164647265737360b01b606482015260840161063d565b506001600160a01b031660009081526003602052604090205490565b33610b2f610b61565b6001600160a01b031614610b555760405162461bcd60e51b815260040161063d90611f7b565b610b5f6000611488565b565b600a546001600160a01b031690565b6060600180546105529061208f565b6001600160a01b038216331415610bd45760405162461bcd60e51b815260206004820152601960248201527822a9219b99189d1030b8383937bb32903a379031b0b63632b960391b604482015260640161063d565b3360008181526005602090815260408083206001600160a01b03871680855290835292819020805460ff191686151590811790915590519081529192917f17307eab39ab6107e8899845ad3d59bd9653f200f220920489ca2b5937696c31910160405180910390a35050565b610c4a3383611213565b610c665760405162461bcd60e51b815260040161063d90611fb0565b610c72848484846114da565b50505050565b33610c81610b61565b6001600160a01b031614610ca75760405162461bcd60e51b815260040161063d90611f7b565b600d805460ff19168215159081179091556040519081527f66de811963f882115fec2b9c23bff76236517492e199394703e721a8718181919060200160405180910390a150565b6060610cf982611188565b610d5d5760405162461bcd60e51b815260206004820152602f60248201527f4552433732314d657461646174613a2055524920717565727920666f72206e6f60448201526e3732bc34b9ba32b73a103a37b5b2b760891b606482015260840161063d565b6000610d6761150d565b90506000815111610d875760405180602001604052806000815250610db2565b80610d918461151c565b604051602001610da2929190611eaa565b6040516020818303038152906040525b9392505050565b33610dc2610b61565b6001600160a01b031614610de85760405162461bcd60e51b815260040161063d90611f7b565b600c54811115610e345760405162461bcd60e51b81526020600482015260176024820152764578636565647320726573657276656420737570706c7960481b604482015260640161063d565b6000610e3f60085490565b905060005b82811015610e7157610e5f84610e5a8385612001565b611636565b80610e69816120ca565b915050610e44565b5081600c6000828254610e84919061204c565b9091555050505050565b6001600160a01b03918216600090815260056020908152604080832093909416825291909152205460ff1690565b33610ec5610b61565b6001600160a01b031614610eeb5760405162461bcd60e51b815260040161063d90611f7b565b6001600160a01b038116610f505760405162461bcd60e51b815260206004820152602660248201527f4f776e61626c653a206e6577206f776e657220697320746865207a65726f206160448201526564647265737360d01b606482015260840161063d565b610f5981611488565b50565b6000610f6760085490565b90506000600c54826101f4610f7c919061204c565b610f86919061204c565b600d5490915060ff16610fd05760405162461bcd60e51b815260206004820152601260248201527153616c65206973206e6f742061637469766560701b604482015260640161063d565b600081116110115760405162461bcd60e51b815260206004820152600e60248201526d139bc81cdd5c1c1b1e481b19599d60921b604482015260640161063d565b600a83111561105b5760405162461bcd60e51b8152602060048201526016602482015275115e18d959591cc81c1d5c98da185cd9481b1a5b5a5d60521b604482015260640161063d565b61106c83666a94d74f43000061202d565b3410156110b55760405162461bcd60e51b815260206004820152601760248201527611551208185b5bdd5b9d081a5b9cdd59999a58da595b9d604a1b604482015260640161063d565b60005b838110156110e857808211156110d6576110d633610e5a8386612001565b806110e0816120ca565b9150506110b8565b508083111561076e57336108fc6110ff838661204c565b61111090666a94d74f43000061202d565b6040518115909202916000818181858888f19350505050158015610c72573d6000803e3d6000fd5b60006001600160e01b031982166380ac58cd60e01b148061116957506001600160e01b03198216635b5e139f60e01b145b8061053d57506301ffc9a760e01b6001600160e01b031983161461053d565b6000908152600260205260409020546001600160a01b0316151590565b600081815260046020526040902080546001600160a01b0319166001600160a01b03841690811790915581906111da8261099a565b6001600160a01b03167f8c5be1e5ebec7d5bd14f71427d1e84f3dd0314c0f7b2291e5b200ac8c7c3b92560405160405180910390a45050565b600061121e82611188565b61127f5760405162461bcd60e51b815260206004820152602c60248201527f4552433732313a206f70657261746f7220717565727920666f72206e6f6e657860448201526b34b9ba32b73a103a37b5b2b760a11b606482015260840161063d565b600061128a8361099a565b9050806001600160a01b0316846001600160a01b031614806112c55750836001600160a01b03166112ba846105d5565b6001600160a01b0316145b806112d557506112d58185610e8e565b949350505050565b826001600160a01b03166112f08261099a565b6001600160a01b0316146113585760405162461bcd60e51b815260206004820152602960248201527f4552433732313a207472616e73666572206f6620746f6b656e2074686174206960448201526839903737ba1037bbb760b91b606482015260840161063d565b6001600160a01b0382166113ba5760405162461bcd60e51b8152602060048201526024808201527f4552433732313a207472616e7366657220746f20746865207a65726f206164646044820152637265737360e01b606482015260840161063d565b6113c5838383611650565b6113d06000826111a5565b6001600160a01b03831660009081526003602052604081208054600192906113f990849061204c565b90915550506001600160a01b0382166000908152600360205260408120805460019290611427908490612001565b909155505060008181526002602052604080822080546001600160a01b0319166001600160a01b0386811691821790925591518493918716917fddf252ad1be2c89b69c2b068fc378daa952ba7f163c4a11628f55a4df523b3ef91a4505050565b600a80546001600160a01b038381166001600160a01b0319831681179093556040519116919082907f8be0079c531659141344cd1fd0a4f28419497f9722a3daafe3b4186f6b6457e090600090a35050565b6114e58484846112dd565b6114f184848484611708565b610c725760405162461bcd60e51b815260040161063d90611f29565b6060600b80546105529061208f565b6060816115405750506040805180820190915260018152600360fc1b602082015290565b8160005b811561156a5780611554816120ca565b91506115639050600a83612019565b9150611544565b60008167ffffffffffffffff81111561159357634e487b7160e01b600052604160045260246000fd5b6040519080825280601f01601f1916602001820160405280156115bd576020820181803683370190505b5090505b84156112d5576115d260018361204c565b91506115df600a866120e5565b6115ea906030612001565b60f81b81838151811061160d57634e487b7160e01b600052603260045260246000fd5b60200101906001600160f81b031916908160001a90535061162f600a86612019565b94506115c1565b610898828260405180602001604052806000815250611815565b6001600160a01b0383166116ab576116a681600880546000838152600960205260408120829055600182018355919091527ff3f7a9fe364faab93b216da50a3214154f22a0a2b415b23a84c8169e8b636ee30155565b6116ce565b816001600160a01b0316836001600160a01b0316146116ce576116ce8382611848565b6001600160a01b0382166116e55761076e816118e5565b826001600160a01b0316826001600160a01b03161461076e5761076e82826119be565b60006001600160a01b0384163b1561180a57604051630a85bd0160e11b81526001600160a01b0385169063150b7a029061174c903390899088908890600401611ed9565b602060405180830381600087803b15801561176657600080fd5b505af1925050508015611796575060408051601f3d908101601f1916820190925261179391810190611e04565b60015b6117f0573d8080156117c4576040519150601f19603f3d011682016040523d82523d6000602084013e6117c9565b606091505b5080516117e85760405162461bcd60e51b815260040161063d90611f29565b805181602001fd5b6001600160e01b031916630a85bd0160e11b1490506112d5565b506001949350505050565b61181f8383611a02565b61182c6000848484611708565b61076e5760405162461bcd60e51b815260040161063d90611f29565b6000600161185584610a9f565b61185f919061204c565b6000838152600760205260409020549091508082146118b2576001600160a01b03841660009081526006602090815260408083208584528252808320548484528184208190558352600790915290208190555b5060009182526007602090815260408084208490556001600160a01b039094168352600681528383209183525290812055565b6008546000906118f79060019061204c565b6000838152600960205260408120546008805493945090928490811061192d57634e487b7160e01b600052603260045260246000fd5b90600052602060002001549050806008838154811061195c57634e487b7160e01b600052603260045260246000fd5b60009182526020808320909101929092558281526009909152604080822084905585825281205560088054806119a257634e487b7160e01b600052603160045260246000fd5b6001900381819060005260206000200160009055905550505050565b60006119c983610a9f565b6001600160a01b039093166000908152600660209081526040808320868452825280832085905593825260079052919091209190915550565b6001600160a01b038216611a585760405162461bcd60e51b815260206004820181905260248201527f4552433732313a206d696e7420746f20746865207a65726f2061646472657373604482015260640161063d565b611a6181611188565b15611aae5760405162461bcd60e51b815260206004820152601c60248201527f4552433732313a20746f6b656e20616c7265616479206d696e74656400000000604482015260640161063d565b611aba60008383611650565b6001600160a01b0382166000908152600360205260408120805460019290611ae3908490612001565b909155505060008181526002602052604080822080546001600160a01b0319166001600160a01b03861690811790915590518392907fddf252ad1be2c89b69c2b068fc378daa952ba7f163c4a11628f55a4df523b3ef908290a45050565b828054611b4d9061208f565b90600052602060002090601f016020900481019282611b6f5760008555611bb5565b82601f10611b8857805160ff1916838001178555611bb5565b82800160010185558215611bb5579182015b82811115611bb5578251825591602001919060010190611b9a565b50611bc1929150611bc5565b5090565b5b80821115611bc15760008155600101611bc6565b600067ffffffffffffffff80841115611bf557611bf5612125565b604051601f8501601f19908116603f01168101908282118183101715611c1d57611c1d612125565b81604052809350858152868686011115611c3657600080fd5b858560208301376000602087830101525050509392505050565b80356001600160a01b0381168114611c6757600080fd5b919050565b80358015158114611c6757600080fd5b600060208284031215611c8d578081fd5b610db282611c50565b60008060408385031215611ca8578081fd5b611cb183611c50565b9150611cbf60208401611c50565b90509250929050565b600080600060608486031215611cdc578081fd5b611ce584611c50565b9250611cf360208501611c50565b9150604084013590509250925092565b60008060008060808587031215611d18578081fd5b611d2185611c50565b9350611d2f60208601611c50565b925060408501359150606085013567ffffffffffffffff811115611d51578182fd5b8501601f81018713611d61578182fd5b611d7087823560208401611bda565b91505092959194509250565b60008060408385031215611d8e578182fd5b611d9783611c50565b9150611cbf60208401611c6c565b60008060408385031215611db7578182fd5b611dc083611c50565b946020939093013593505050565b600060208284031215611ddf578081fd5b610db282611c6c565b600060208284031215611df9578081fd5b8135610db28161213b565b600060208284031215611e15578081fd5b8151610db28161213b565b600060208284031215611e31578081fd5b813567ffffffffffffffff811115611e47578182fd5b8201601f81018413611e57578182fd5b6112d584823560208401611bda565b600060208284031215611e77578081fd5b5035919050565b60008151808452611e96816020860160208601612063565b601f01601f19169290920160200192915050565b60008351611ebc818460208801612063565b835190830190611ed0818360208801612063565b01949350505050565b6001600160a01b0385811682528416602082015260408101839052608060608201819052600090611f0c90830184611e7e565b9695505050505050565b602081526000610db26020830184611e7e565b60208082526032908201527f4552433732313a207472616e7366657220746f206e6f6e20455243373231526560408201527131b2b4bb32b91034b6b83632b6b2b73a32b960711b606082015260800190565b6020808252818101527f4f776e61626c653a2063616c6c6572206973206e6f7420746865206f776e6572604082015260600190565b60208082526031908201527f4552433732313a207472616e736665722063616c6c6572206973206e6f74206f6040820152701ddb995c881b9bdc88185c1c1c9bdd9959607a1b606082015260800190565b60008219821115612014576120146120f9565b500190565b6000826120285761202861210f565b500490565b6000816000190483118215151615612047576120476120f9565b500290565b60008282101561205e5761205e6120f9565b500390565b60005b8381101561207e578181015183820152602001612066565b83811115610c725750506000910152565b600181811c908216806120a357607f821691505b602082108114156120c457634e487b7160e01b600052602260045260246000fd5b50919050565b60006000198214156120de576120de6120f9565b5060010190565b6000826120f4576120f461210f565b500690565b634e487b7160e01b600052601160045260246000fd5b634e487b7160e01b600052601260045260246000fd5b634e487b7160e01b600052604160045260246000fd5b6001600160e01b031981168114610f5957600080fdfea264697066735822122019d420f4f37c485297a3eb88bbf96034de7b5cad10f4617779f1af4837050c3864736f6c63430008040033",
  "linkReferences": {},
  "deployedLinkReferences": {}
}