{
  "_format": "hh-sol-artifact-1",
  "contractName": "ChadFrogs",
  "sourceName": "contracts/ChadFrogs.sol",
  "abi": [
    {
      "inputs": [
        {
          "internalType": "string",
          "name": "_baseURIString",
          "type": "string"
        }
      ],
      "stateMutability": "nonpayable",
      "type": "constructor"
    },
    {
      "anonymous": false,
      "inputs": [
        {
          "indexed": true,
          "internalType": "address",
          "name": "owner",
          "type": "address"
        },
        {
          "indexed": true,
          "internalType": "address",
          "name": "approved",
          "type": "address"
        },
        {
          "indexed": true,
          "internalType": "uint256",
          "name": "tokenId",
          "type": "uint256"
        }
      ],
      "name": "Approval",
      "type": "event"
    },
    {
      "anonymous": false,
      "inputs": [
        {
          "indexed": true,
          "internalType": "address",
          "name": "owner",
          "type": "address"
        },
        {
          "indexed": true,
          "internalType": "address",
          "name": "operator",
          "type": "address"
        },
        {
          "indexed": false,
          "internalType": "bool",
          "name": "approved",
          "type": "bool"
        }
      ],
      "name": "ApprovalForAll",
      "type": "event"
    },
    {
      "anonymous": false,
      "inputs": [
        {
          "indexed": true,
          "internalType": "address",
          "name": "previousOwner",
          "type": "address"
        },
        {
          "indexed": true,
          "internalType": "address",
          "name": "newOwner",
          "type": "address"
        }
      ],
      "name": "OwnershipTransferred",
      "type": "event"
    },
    {
      "anonymous": false,
      "inputs": [
        {
          "indexed": true,
          "internalType": "address",
          "name": "from",
          "type": "address"
        },
        {
          "indexed": true,
          "internalType": "address",
          "name": "to",
          "type": "address"
        },
        {
          "indexed": true,
          "internalType": "uint256",
          "name": "tokenId",
          "type": "uint256"
        }
      ],
      "name": "Transfer",
      "type": "event"
    },
    {
      "inputs": [],
      "name": "MAX_SUPPLY",
      "outputs": [
        {
          "internalType": "uint256",
          "name": "",
          "type": "uint256"
        }
      ],
      "stateMutability": "view",
      "type": "function"
    },
    {
      "inputs": [],
      "name": "PRICE",
      "outputs": [
        {
          "internalType": "uint256",
          "name": "",
          "type": "uint256"
        }
      ],
      "stateMutability": "view",
      "type": "function"
    },
    {
      "inputs": [],
      "name": "PURCHASE_LIMIT",
      "outputs": [
        {
          "internalType": "uint256",
          "name": "",
          "type": "uint256"
        }
      ],
      "stateMutability": "view",
      "type": "function"
    },
    {
      "inputs": [
        {
          "internalType": "address",
          "name": "to",
          "type": "address"
        },
        {
          "internalType": "uint256",
          "name": "tokenId",
          "type": "uint256"
        }
      ],
      "name": "approve",
      "outputs": [],
      "stateMutability": "nonpayable",
      "type": "function"
    },
    {
      "inputs": [
        {
          "internalType": "address",
          "name": "owner",
          "type": "address"
        }
      ],
      "name": "balanceOf",
      "outputs": [
        {
          "internalType": "uint256",
          "name": "",
          "type": "uint256"
        }
      ],
      "stateMutability": "view",
      "type": "function"
    },
    {
      "inputs": [],
      "name": "baseURI",
      "outputs": [
        {
          "internalType": "string",
          "name": "",
          "type": "string"
        }
      ],
      "stateMutability": "view",
      "type": "function"
    },
    {
      "inputs": [
        {
          "internalType": "uint256",
          "name": "tokenId",
          "type": "uint256"
        }
      ],
      "name": "getApproved",
      "outputs": [
        {
          "internalType": "address",
          "name": "",
          "type": "address"
        }
      ],
      "stateMutability": "view",
      "type": "function"
    },
    {
      "inputs": [
        {
          "internalType": "address",
          "name": "_to",
          "type": "address"
        },
        {
          "internalType": "uint256",
          "name": "_amount",
          "type": "uint256"
        }
      ],
      "name": "giveAway",
      "outputs": [],
      "stateMutability": "nonpayable",
      "type": "function"
    },
    {
      "inputs": [
        {
          "internalType": "address",
          "name": "owner",
          "type": "address"
        },
        {
          "internalType": "address",
          "name": "operator",
          "type": "address"
        }
      ],
      "name": "isApprovedForAll",
      "outputs": [
        {
          "internalType": "bool",
          "name": "",
          "type": "bool"
        }
      ],
      "stateMutability": "view",
      "type": "function"
    },
    {
      "inputs": [
        {
          "internalType": "uint256",
          "name": "_amount",
          "type": "uint256"
        }
      ],
      "name": "mintChad",
      "outputs": [],
      "stateMutability": "payable",
      "type": "function"
    },
    {
      "inputs": [],
      "name": "mintableSupplyLeft",
      "outputs": [
        {
          "internalType": "uint256",
          "name": "",
          "type": "uint256"
        }
      ],
      "stateMutability": "view",
      "type": "function"
    },
    {
      "inputs": [],
      "name": "name",
      "outputs": [
        {
          "internalType": "string",
          "name": "",
          "type": "string"
        }
      ],
      "stateMutability": "view",
      "type": "function"
    },
    {
      "inputs": [],
      "name": "owner",
      "outputs": [
        {
          "internalType": "address",
          "name": "",
          "type": "address"
        }
      ],
      "stateMutability": "view",
      "type": "function"
    },
    {
      "inputs": [
        {
          "internalType": "uint256",
          "name": "tokenId",
          "type": "uint256"
        }
      ],
      "name": "ownerOf",
      "outputs": [
        {
          "internalType": "address",
          "name": "",
          "type": "address"
        }
      ],
      "stateMutability": "view",
      "type": "function"
    },
    {
      "inputs": [],
      "name": "pauseSale",
      "outputs": [],
      "stateMutability": "nonpayable",
      "type": "function"
    },
    {
      "inputs": [],
      "name": "paused",
      "outputs": [
        {
          "internalType": "bool",
          "name": "",
          "type": "bool"
        }
      ],
      "stateMutability": "view",
      "type": "function"
    },
    {
      "inputs": [],
      "name": "renounceOwnership",
      "outputs": [],
      "stateMutability": "nonpayable",
      "type": "function"
    },
    {
      "inputs": [],
      "name": "reserveSupply",
      "outputs": [
        {
          "internalType": "uint256",
          "name": "",
          "type": "uint256"
        }
      ],
      "stateMutability": "view",
      "type": "function"
    },
    {
      "inputs": [
        {
          "internalType": "address",
          "name": "from",
          "type": "address"
        },
        {
          "internalType": "address",
          "name": "to",
          "type": "address"
        },
        {
          "internalType": "uint256",
          "name": "tokenId",
          "type": "uint256"
        }
      ],
      "name": "safeTransferFrom",
      "outputs": [],
      "stateMutability": "nonpayable",
      "type": "function"
    },
    {
      "inputs": [
        {
          "internalType": "address",
          "name": "from",
          "type": "address"
        },
        {
          "internalType": "address",
          "name": "to",
          "type": "address"
        },
        {
          "internalType": "uint256",
          "name": "tokenId",
          "type": "uint256"
        },
        {
          "internalType": "bytes",
          "name": "_data",
          "type": "bytes"
        }
      ],
      "name": "safeTransferFrom",
      "outputs": [],
      "stateMutability": "nonpayable",
      "type": "function"
    },
    {
      "inputs": [
        {
          "internalType": "address",
          "name": "operator",
          "type": "address"
        },
        {
          "internalType": "bool",
          "name": "approved",
          "type": "bool"
        }
      ],
      "name": "setApprovalForAll",
      "outputs": [],
      "stateMutability": "nonpayable",
      "type": "function"
    },
    {
      "inputs": [
        {
          "internalType": "string",
          "name": "_baseURIString",
          "type": "string"
        }
      ],
      "name": "setBaseURI",
      "outputs": [],
      "stateMutability": "nonpayable",
      "type": "function"
    },
    {
      "inputs": [],
      "name": "startSale",
      "outputs": [],
      "stateMutability": "nonpayable",
      "type": "function"
    },
    {
      "inputs": [
        {
          "internalType": "bytes4",
          "name": "interfaceId",
          "type": "bytes4"
        }
      ],
      "name": "supportsInterface",
      "outputs": [
        {
          "internalType": "bool",
          "name": "",
          "type": "bool"
        }
      ],
      "stateMutability": "view",
      "type": "function"
    },
    {
      "inputs": [],
      "name": "symbol",
      "outputs": [
        {
          "internalType": "string",
          "name": "",
          "type": "string"
        }
      ],
      "stateMutability": "view",
      "type": "function"
    },
    {
      "inputs": [
        {
          "internalType": "uint256",
          "name": "index",
          "type": "uint256"
        }
      ],
      "name": "tokenByIndex",
      "outputs": [
        {
          "internalType": "uint256",
          "name": "",
          "type": "uint256"
        }
      ],
      "stateMutability": "view",
      "type": "function"
    },
    {
      "inputs": [
        {
          "internalType": "address",
          "name": "owner",
          "type": "address"
        },
        {
          "internalType": "uint256",
          "name": "index",
          "type": "uint256"
        }
      ],
      "name": "tokenOfOwnerByIndex",
      "outputs": [
        {
          "internalType": "uint256",
          "name": "",
          "type": "uint256"
        }
      ],
      "stateMutability": "view",
      "type": "function"
    },
    {
      "inputs": [
        {
          "internalType": "uint256",
          "name": "tokenId",
          "type": "uint256"
        }
      ],
      "name": "tokenURI",
      "outputs": [
        {
          "internalType": "string",
          "name": "",
          "type": "string"
        }
      ],
      "stateMutability": "view",
      "type": "function"
    },
    {
      "inputs": [],
      "name": "totalSupply",
      "outputs": [
        {
          "internalType": "uint256",
          "name": "",
          "type": "uint256"
        }
      ],
      "stateMutability": "view",
      "type": "function"
    },
    {
      "inputs": [
        {
          "internalType": "address",
          "name": "from",
          "type": "address"
        },
        {
          "internalType": "address",
          "name": "to",
          "type": "address"
        },
        {
          "internalType": "uint256",
          "name": "tokenId",
          "type": "uint256"
        }
      ],
      "name": "transferFrom",
      "outputs": [],
      "stateMutability": "nonpayable",
      "type": "function"
    },
    {
      "inputs": [
        {
          "internalType": "address",
          "name": "newOwner",
          "type": "address"
        }
      ],
      "name": "transferOwnership",
      "outputs": [],
      "stateMutability": "nonpayable",
      "type": "function"
    },
    {
      "inputs": [],
      "name": "withdraw",
      "outputs": [],
      "stateMutability": "nonpayable",
      "type": "function"
    }
  ],
  "bytecode": "0x60806040526064600c55600d805460ff191660011790553480156200002357600080fd5b506040516200256d3803806200256d8339810160408190526200004691620001df565b60408051808201825260098152684368616446726f677360b81b60208083019182528351808501909452600484526310d2105160e21b908401528151919291620000939160009162000139565b508051620000a990600190602084019062000139565b505050620000c6620000c0620000e360201b60201c565b620000e7565b8051620000db90600b90602084019062000139565b505062000308565b3390565b600a80546001600160a01b038381166001600160a01b0319831681179093556040519116919082907f8be0079c531659141344cd1fd0a4f28419497f9722a3daafe3b4186f6b6457e090600090a35050565b8280546200014790620002b5565b90600052602060002090601f0160209004810192826200016b5760008555620001b6565b82601f106200018657805160ff1916838001178555620001b6565b82800160010185558215620001b6579182015b82811115620001b657825182559160200191906001019062000199565b50620001c4929150620001c8565b5090565b5b80821115620001c45760008155600101620001c9565b60006020808385031215620001f2578182fd5b82516001600160401b038082111562000209578384fd5b818501915085601f8301126200021d578384fd5b815181811115620002325762000232620002f2565b604051601f8201601f19908116603f011681019083821181831017156200025d576200025d620002f2565b81604052828152888684870101111562000275578687fd5b8693505b8284101562000298578484018601518185018701529285019262000279565b82841115620002a957868684830101525b98975050505050505050565b600181811c90821680620002ca57607f821691505b60208210811415620002ec57634e487b7160e01b600052602260045260246000fd5b50919050565b634e487b7160e01b600052604160045260246000fd5b61225580620003186000396000f3fe6080604052600436106101a35760003560e01c80636c0360eb116100e2578063b66a0e5d11610085578063b66a0e5d14610470578063b88d4fde14610485578063c87b56dd146104a5578063ca800144146104c5578063d75e6110146104e5578063e985e9c5146104fa578063f2fde38b1461051a578063fe234aac1461053a57600080fd5b80636c0360eb146103ac57806370a08231146103c1578063715018a6146103e15780638d859f3e146103f65780638da5cb5b1461041157806395d89b41146104265780639bf0bdd01461043b578063a22cb4651461045057600080fd5b806332cb6b0c1161014a57806332cb6b0c146102d25780633ccfd60b146102e857806342842e0e146102fd5780634f6ccce71461031d57806355367ba91461033d57806355f804b3146103525780635c975abb146103725780636352211e1461038c57600080fd5b806301ffc9a7146101a857806303d41eb6146101dd57806306fdde0314610201578063081812fc14610223578063095ea7b31461025b57806318160ddd1461027d57806323b872dd146102925780632f745c59146102b2575b600080fd5b3480156101b457600080fd5b506101c86101c3366004611eb6565b61054d565b60405190151581526020015b60405180910390f35b3480156101e957600080fd5b506101f3600c5481565b6040519081526020016101d4565b34801561020d57600080fd5b50610216610578565b6040516101d49190611fe4565b34801561022f57600080fd5b5061024361023e366004611f34565b61060a565b6040516001600160a01b0390911681526020016101d4565b34801561026757600080fd5b5061027b610276366004611e8d565b610697565b005b34801561028957600080fd5b506008546101f3565b34801561029e57600080fd5b5061027b6102ad366004611d9f565b6107a8565b3480156102be57600080fd5b506101f36102cd366004611e8d565b6107d9565b3480156102de57600080fd5b506101f361138881565b3480156102f457600080fd5b5061027b61086f565b34801561030957600080fd5b5061027b610318366004611d9f565b6108d1565b34801561032957600080fd5b506101f3610338366004611f34565b6108ec565b34801561034957600080fd5b5061027b61098d565b34801561035e57600080fd5b5061027b61036d366004611eee565b610a14565b34801561037e57600080fd5b50600d546101c89060ff1681565b34801561039857600080fd5b506102436103a7366004611f34565b610a56565b3480156103b857600080fd5b50610216610acd565b3480156103cd57600080fd5b506101f36103dc366004611d53565b610b5b565b3480156103ed57600080fd5b5061027b610be2565b34801561040257600080fd5b506101f3666a94d74f43000081565b34801561041d57600080fd5b50610243610c1d565b34801561043257600080fd5b50610216610c2c565b34801561044757600080fd5b506101f3610c3b565b34801561045c57600080fd5b5061027b61046b366004611e53565b610c58565b34801561047c57600080fd5b5061027b610d19565b34801561049157600080fd5b5061027b6104a0366004611dda565b610d9c565b3480156104b157600080fd5b506102166104c0366004611f34565b610dd4565b3480156104d157600080fd5b5061027b6104e0366004611e8d565b610e9f565b3480156104f157600080fd5b506101f3600a81565b34801561050657600080fd5b506101c8610515366004611d6d565b610f74565b34801561052657600080fd5b5061027b610535366004611d53565b610fa2565b61027b610548366004611f34565b611042565b60006001600160e01b0319821663780e9d6360e01b148061057257506105728261121f565b92915050565b6060600080546105879061215d565b80601f01602080910402602001604051908101604052809291908181526020018280546105b39061215d565b80156106005780601f106105d557610100808354040283529160200191610600565b820191906000526020600020905b8154815290600101906020018083116105e357829003601f168201915b5050505050905090565b60006106158261126f565b61067b5760405162461bcd60e51b815260206004820152602c60248201527f4552433732313a20617070726f76656420717565727920666f72206e6f6e657860448201526b34b9ba32b73a103a37b5b2b760a11b60648201526084015b60405180910390fd5b506000908152600460205260409020546001600160a01b031690565b60006106a282610a56565b9050806001600160a01b0316836001600160a01b031614156107105760405162461bcd60e51b815260206004820152602160248201527f4552433732313a20617070726f76616c20746f2063757272656e74206f776e656044820152603960f91b6064820152608401610672565b336001600160a01b038216148061072c575061072c8133610f74565b6107995760405162461bcd60e51b815260206004820152603860248201527f4552433732313a20617070726f76652063616c6c6572206973206e6f74206f776044820152771b995c881b9bdc88185c1c1c9bdd995908199bdc88185b1b60421b6064820152608401610672565b6107a3838361128c565b505050565b6107b233826112fa565b6107ce5760405162461bcd60e51b81526004016106729061207e565b6107a38383836113c4565b60006107e483610b5b565b82106108465760405162461bcd60e51b815260206004820152602b60248201527f455243373231456e756d657261626c653a206f776e657220696e646578206f7560448201526a74206f6620626f756e647360a81b6064820152608401610672565b506001600160a01b03919091166000908152600660209081526040808320938352929052205490565b33610878610c1d565b6001600160a01b03161461089e5760405162461bcd60e51b815260040161067290612049565b6040514790339082156108fc029083906000818181858888f193505050501580156108cd573d6000803e3d6000fd5b5050565b6107a383838360405180602001604052806000815250610d9c565b60006108f760085490565b821061095a5760405162461bcd60e51b815260206004820152602c60248201527f455243373231456e756d657261626c653a20676c6f62616c20696e646578206f60448201526b7574206f6620626f756e647360a01b6064820152608401610672565b6008828154811061097b57634e487b7160e01b600052603260045260246000fd5b90600052602060002001549050919050565b33610996610c1d565b6001600160a01b0316146109bc5760405162461bcd60e51b815260040161067290612049565b600d5460ff1615610a055760405162461bcd60e51b815260206004820152601360248201527214d85b1948185b1c9958591e481c185d5cd959606a1b6044820152606401610672565b600d805460ff19166001179055565b33610a1d610c1d565b6001600160a01b031614610a435760405162461bcd60e51b815260040161067290612049565b80516108cd90600b906020840190611c28565b6000818152600260205260408120546001600160a01b0316806105725760405162461bcd60e51b815260206004820152602960248201527f4552433732313a206f776e657220717565727920666f72206e6f6e657869737460448201526832b73a103a37b5b2b760b91b6064820152608401610672565b600b8054610ada9061215d565b80601f0160208091040260200160405190810160405280929190818152602001828054610b069061215d565b8015610b535780601f10610b2857610100808354040283529160200191610b53565b820191906000526020600020905b815481529060010190602001808311610b3657829003601f168201915b505050505081565b60006001600160a01b038216610bc65760405162461bcd60e51b815260206004820152602a60248201527f4552433732313a2062616c616e636520717565727920666f7220746865207a65604482015269726f206164647265737360b01b6064820152608401610672565b506001600160a01b031660009081526003602052604090205490565b33610beb610c1d565b6001600160a01b031614610c115760405162461bcd60e51b815260040161067290612049565b610c1b600061156f565b565b600a546001600160a01b031690565b6060600180546105879061215d565b6000600c54610c4960085490565b610c53919061211a565b905090565b6001600160a01b038216331415610cad5760405162461bcd60e51b815260206004820152601960248201527822a9219b99189d1030b8383937bb32903a379031b0b63632b960391b6044820152606401610672565b3360008181526005602090815260408083206001600160a01b03871680855290835292819020805460ff191686151590811790915590519081529192917f17307eab39ab6107e8899845ad3d59bd9653f200f220920489ca2b5937696c31910160405180910390a35050565b33610d22610c1d565b6001600160a01b031614610d485760405162461bcd60e51b815260040161067290612049565b600d5460ff16610d905760405162461bcd60e51b815260206004820152601360248201527253616c6520616c72656164792061637469766560681b6044820152606401610672565b600d805460ff19169055565b610da633836112fa565b610dc25760405162461bcd60e51b81526004016106729061207e565b610dce848484846115c1565b50505050565b6060610ddf8261126f565b610e435760405162461bcd60e51b815260206004820152602f60248201527f4552433732314d657461646174613a2055524920717565727920666f72206e6f60448201526e3732bc34b9ba32b73a103a37b5b2b760891b6064820152608401610672565b6000610e4d6115f4565b90506000815111610e6d5760405180602001604052806000815250610e98565b80610e7784611603565b604051602001610e88929190611f78565b6040516020818303038152906040525b9392505050565b33610ea8610c1d565b6001600160a01b031614610ece5760405162461bcd60e51b815260040161067290612049565b600c54811115610f1a5760405162461bcd60e51b81526020600482015260176024820152764578636565647320726573657276656420737570706c7960481b6044820152606401610672565b6000610f2560085490565b905060005b82811015610f5757610f4584610f4083856120cf565b61171d565b80610f4f81612198565b915050610f2a565b5081600c6000828254610f6a919061211a565b9091555050505050565b6001600160a01b03918216600090815260056020908152604080832093909416825291909152205460ff1690565b33610fab610c1d565b6001600160a01b031614610fd15760405162461bcd60e51b815260040161067290612049565b6001600160a01b0381166110365760405162461bcd60e51b815260206004820152602660248201527f4f776e61626c653a206e6577206f776e657220697320746865207a65726f206160448201526564647265737360d01b6064820152608401610672565b61103f8161156f565b50565b600061104d60085490565b90506000600c5482611388611062919061211a565b61106c919061211a565b600d5490915060ff16156110b75760405162461bcd60e51b815260206004820152601260248201527153616c65206973206e6f742061637469766560701b6044820152606401610672565b600081116110f85760405162461bcd60e51b815260206004820152600e60248201526d139bc81cdd5c1c1b1e481b19599d60921b6044820152606401610672565b600a8311156111425760405162461bcd60e51b8152602060048201526016602482015275115e18d959591cc81c1d5c98da185cd9481b1a5b5a5d60521b6044820152606401610672565b61115383666a94d74f4300006120fb565b34101561119c5760405162461bcd60e51b815260206004820152601760248201527611551208185b5bdd5b9d081a5b9cdd59999a58da595b9d604a1b6044820152606401610672565b60005b838110156111cf57808211156111bd576111bd33610f4083866120cf565b806111c781612198565b91505061119f565b50808311156107a357336108fc6111e6838661211a565b6111f790666a94d74f4300006120fb565b6040518115909202916000818181858888f19350505050158015610dce573d6000803e3d6000fd5b60006001600160e01b031982166380ac58cd60e01b148061125057506001600160e01b03198216635b5e139f60e01b145b8061057257506301ffc9a760e01b6001600160e01b0319831614610572565b6000908152600260205260409020546001600160a01b0316151590565b600081815260046020526040902080546001600160a01b0319166001600160a01b03841690811790915581906112c182610a56565b6001600160a01b03167f8c5be1e5ebec7d5bd14f71427d1e84f3dd0314c0f7b2291e5b200ac8c7c3b92560405160405180910390a45050565b60006113058261126f565b6113665760405162461bcd60e51b815260206004820152602c60248201527f4552433732313a206f70657261746f7220717565727920666f72206e6f6e657860448201526b34b9ba32b73a103a37b5b2b760a11b6064820152608401610672565b600061137183610a56565b9050806001600160a01b0316846001600160a01b031614806113ac5750836001600160a01b03166113a18461060a565b6001600160a01b0316145b806113bc57506113bc8185610f74565b949350505050565b826001600160a01b03166113d782610a56565b6001600160a01b03161461143f5760405162461bcd60e51b815260206004820152602960248201527f4552433732313a207472616e73666572206f6620746f6b656e2074686174206960448201526839903737ba1037bbb760b91b6064820152608401610672565b6001600160a01b0382166114a15760405162461bcd60e51b8152602060048201526024808201527f4552433732313a207472616e7366657220746f20746865207a65726f206164646044820152637265737360e01b6064820152608401610672565b6114ac838383611737565b6114b760008261128c565b6001600160a01b03831660009081526003602052604081208054600192906114e090849061211a565b90915550506001600160a01b038216600090815260036020526040812080546001929061150e9084906120cf565b909155505060008181526002602052604080822080546001600160a01b0319166001600160a01b0386811691821790925591518493918716917fddf252ad1be2c89b69c2b068fc378daa952ba7f163c4a11628f55a4df523b3ef91a4505050565b600a80546001600160a01b038381166001600160a01b0319831681179093556040519116919082907f8be0079c531659141344cd1fd0a4f28419497f9722a3daafe3b4186f6b6457e090600090a35050565b6115cc8484846113c4565b6115d8848484846117ef565b610dce5760405162461bcd60e51b815260040161067290611ff7565b6060600b80546105879061215d565b6060816116275750506040805180820190915260018152600360fc1b602082015290565b8160005b8115611651578061163b81612198565b915061164a9050600a836120e7565b915061162b565b60008167ffffffffffffffff81111561167a57634e487b7160e01b600052604160045260246000fd5b6040519080825280601f01601f1916602001820160405280156116a4576020820181803683370190505b5090505b84156113bc576116b960018361211a565b91506116c6600a866121b3565b6116d19060306120cf565b60f81b8183815181106116f457634e487b7160e01b600052603260045260246000fd5b60200101906001600160f81b031916908160001a905350611716600a866120e7565b94506116a8565b6108cd8282604051806020016040528060008152506118fc565b6001600160a01b0383166117925761178d81600880546000838152600960205260408120829055600182018355919091527ff3f7a9fe364faab93b216da50a3214154f22a0a2b415b23a84c8169e8b636ee30155565b6117b5565b816001600160a01b0316836001600160a01b0316146117b5576117b5838261192f565b6001600160a01b0382166117cc576107a3816119cc565b826001600160a01b0316826001600160a01b0316146107a3576107a38282611aa5565b60006001600160a01b0384163b156118f157604051630a85bd0160e11b81526001600160a01b0385169063150b7a0290611833903390899088908890600401611fa7565b602060405180830381600087803b15801561184d57600080fd5b505af192505050801561187d575060408051601f3d908101601f1916820190925261187a91810190611ed2565b60015b6118d7573d8080156118ab576040519150601f19603f3d011682016040523d82523d6000602084013e6118b0565b606091505b5080516118cf5760405162461bcd60e51b815260040161067290611ff7565b805181602001fd5b6001600160e01b031916630a85bd0160e11b1490506113bc565b506001949350505050565b6119068383611ae9565b61191360008484846117ef565b6107a35760405162461bcd60e51b815260040161067290611ff7565b6000600161193c84610b5b565b611946919061211a565b600083815260076020526040902054909150808214611999576001600160a01b03841660009081526006602090815260408083208584528252808320548484528184208190558352600790915290208190555b5060009182526007602090815260408084208490556001600160a01b039094168352600681528383209183525290812055565b6008546000906119de9060019061211a565b60008381526009602052604081205460088054939450909284908110611a1457634e487b7160e01b600052603260045260246000fd5b906000526020600020015490508060088381548110611a4357634e487b7160e01b600052603260045260246000fd5b6000918252602080832090910192909255828152600990915260408082208490558582528120556008805480611a8957634e487b7160e01b600052603160045260246000fd5b6001900381819060005260206000200160009055905550505050565b6000611ab083610b5b565b6001600160a01b039093166000908152600660209081526040808320868452825280832085905593825260079052919091209190915550565b6001600160a01b038216611b3f5760405162461bcd60e51b815260206004820181905260248201527f4552433732313a206d696e7420746f20746865207a65726f20616464726573736044820152606401610672565b611b488161126f565b15611b955760405162461bcd60e51b815260206004820152601c60248201527f4552433732313a20746f6b656e20616c7265616479206d696e746564000000006044820152606401610672565b611ba160008383611737565b6001600160a01b0382166000908152600360205260408120805460019290611bca9084906120cf565b909155505060008181526002602052604080822080546001600160a01b0319166001600160a01b03861690811790915590518392907fddf252ad1be2c89b69c2b068fc378daa952ba7f163c4a11628f55a4df523b3ef908290a45050565b828054611c349061215d565b90600052602060002090601f016020900481019282611c565760008555611c9c565b82601f10611c6f57805160ff1916838001178555611c9c565b82800160010185558215611c9c579182015b82811115611c9c578251825591602001919060010190611c81565b50611ca8929150611cac565b5090565b5b80821115611ca85760008155600101611cad565b600067ffffffffffffffff80841115611cdc57611cdc6121f3565b604051601f8501601f19908116603f01168101908282118183101715611d0457611d046121f3565b81604052809350858152868686011115611d1d57600080fd5b858560208301376000602087830101525050509392505050565b80356001600160a01b0381168114611d4e57600080fd5b919050565b600060208284031215611d64578081fd5b610e9882611d37565b60008060408385031215611d7f578081fd5b611d8883611d37565b9150611d9660208401611d37565b90509250929050565b600080600060608486031215611db3578081fd5b611dbc84611d37565b9250611dca60208501611d37565b9150604084013590509250925092565b60008060008060808587031215611def578081fd5b611df885611d37565b9350611e0660208601611d37565b925060408501359150606085013567ffffffffffffffff811115611e28578182fd5b8501601f81018713611e38578182fd5b611e4787823560208401611cc1565b91505092959194509250565b60008060408385031215611e65578182fd5b611e6e83611d37565b915060208301358015158114611e82578182fd5b809150509250929050565b60008060408385031215611e9f578182fd5b611ea883611d37565b946020939093013593505050565b600060208284031215611ec7578081fd5b8135610e9881612209565b600060208284031215611ee3578081fd5b8151610e9881612209565b600060208284031215611eff578081fd5b813567ffffffffffffffff811115611f15578182fd5b8201601f81018413611f25578182fd5b6113bc84823560208401611cc1565b600060208284031215611f45578081fd5b5035919050565b60008151808452611f64816020860160208601612131565b601f01601f19169290920160200192915050565b60008351611f8a818460208801612131565b835190830190611f9e818360208801612131565b01949350505050565b6001600160a01b0385811682528416602082015260408101839052608060608201819052600090611fda90830184611f4c565b9695505050505050565b602081526000610e986020830184611f4c565b60208082526032908201527f4552433732313a207472616e7366657220746f206e6f6e20455243373231526560408201527131b2b4bb32b91034b6b83632b6b2b73a32b960711b606082015260800190565b6020808252818101527f4f776e61626c653a2063616c6c6572206973206e6f7420746865206f776e6572604082015260600190565b60208082526031908201527f4552433732313a207472616e736665722063616c6c6572206973206e6f74206f6040820152701ddb995c881b9bdc88185c1c1c9bdd9959607a1b606082015260800190565b600082198211156120e2576120e26121c7565b500190565b6000826120f6576120f66121dd565b500490565b6000816000190483118215151615612115576121156121c7565b500290565b60008282101561212c5761212c6121c7565b500390565b60005b8381101561214c578181015183820152602001612134565b83811115610dce5750506000910152565b600181811c9082168061217157607f821691505b6020821081141561219257634e487b7160e01b600052602260045260246000fd5b50919050565b60006000198214156121ac576121ac6121c7565b5060010190565b6000826121c2576121c26121dd565b500690565b634e487b7160e01b600052601160045260246000fd5b634e487b7160e01b600052601260045260246000fd5b634e487b7160e01b600052604160045260246000fd5b6001600160e01b03198116811461103f57600080fdfea264697066735822122052b93a816eec99fc54fddda98568995fdebd8fcbeef987808f374340eab721de64736f6c63430008040033",
  "linkReferences": {},
  "deployedLinkReferences": {}
}